:100000000C942A000C948C080C94B0080C94D5081D
:100010000C9447000C9447000C9447000C94470044
:100020000C9447000C9447000C9479090C949D099A
:100030000C9447000C94490A0C946E0A0C94930A91
:100040000C9438080C9447000C9447000C9447001B
:100050000C94470011241FBECFE5D8E0DEBFCDBF12
:1000600011E0A0E6B0E0E4E3FFE102C005900D92EC
:10007000A232B107D9F721E0A2E2B1E001C01D929E
:10008000AC35B207E1F70E94B70A0C94980F0C94B4
:1000900000001092350189E490E090933401809340
:1000A00033010895CF93DF9300D000D01F92CDB7D6
:1000B000DEB710923501198287E08A8381E08B8355
:1000C000CE0101960E94000885E08C838D83CE01CD
:1000D00004960E9498070E941D0885E00E941F0850
:1000E0000E94240889E490E09093340180933301C6
:1000F0000F900F900F900F900F90DF91CF91089578
:10010000CF93C1E0C0933501809125010E94B301D6
:1001100087E00E941F08C09322010E94240889E4FE
:1001200090E09093340180933301CF91089582E061
:1001300080933501809123010E94420285E00E9454
:100140001F08109222010E94240889E490E09093F5
:10015000340180933301089580912201811108C0F8
:1001600081E00E94A007809325010E9480000895ED
:100170000E942A0890932401809323010E949700F3
:1001800008951092380181EC90E0909337018093AC
:100190003601089581E080933801809126010E9404
:1001A000350580912601863429F0833589F0823423
:1001B000A9F407C08FEE90E0909337018093360149
:1001C00008958FEF90E09093370180933601089562
:1001D0008FE091E09093370180933601089582E09B
:1001E0008093380140E160E380E390E00E942109C0
:1001F00081EC90E09093370180933601089583E07D
:100200008093380140E260E380E390E00E9421099E
:1002100081EC90E09093370180933601089583E05C
:100220008093380140E060E380E390E00E94210980
:1002300081EC90E090933701809336010895CF933D
:10024000DF93CDB7DEB72A970FB6F894DEBF0FBEA7
:10025000CDBF1092380180E3898381E08A83BE019B
:100260006F5F7F4F80E390E00E94F90888E0EBE742
:10027000F0E0DE01139601900D928A95E1F7CE0130
:1002800003960E94C10981EC90E09093370180931E
:1002900036012A960FB6F894DEBF0FBECDBFDF91B0
:1002A000CF91089586E291E00E94430A8091260151
:1002B0000E943F0A8AEC90E09093370180933601C8
:1002C00008951092390181E691E090933B0180936B
:1002D0003A01089581E080933901809127018C33A0
:1002E0001CF48BE791E002C08CE891E090933B0115
:1002F00080933A01089583E0809339010E94F001D0
:1003000060E0809127010E94230581E691E09093AF
:100310003B0180933A01089582E08093390181E0A6
:100320000E94E40161E0809127010E9423050E9460
:100330000F01809127018C336CF061E00E9423054E
:1003400083ED90E30197F1F700C000008091270151
:100350008C339CF70E94CA008BE791E090933B019D
:1003600080933A010895809327018AE691E0909363
:100370003B0180933A0108951092390181E691E0A2
:1003800090933B0180933A01089510923C0140E024
:1003900060E489E390E00E94280985EC91E0909365
:1003A0003E0180933D01089581E080933C0141E04E
:1003B00060E489E390E00E94280984ED91E0909345
:1003C0003E0180933D010895813019F40E94D401CB
:1003D000089584ED91E090933E0180933D0108954E
:1003E00085EC91E090933E0180933D010895CF9379
:1003F000DF9300D0CDB7DEB710923C0180E4898353
:1004000081E08A83BE016F5F7F4F89E390E00E94A5
:10041000F90885EC91E090933E0180933D010F90A7
:100420000F90DF91CF91089510923F0184E192E007
:100430009093410180934001089581E080933F01B2
:100440006091290170912A0180E090E00E949A0B4E
:1004500022EC37E146E85EE30E94280C20E030E021
:1004600040E85FE30E94090B0E946E0B862F6093A9
:1004700028010E94740284E192E0909341018093EC
:1004800040010895992787FD909590932A018093C4
:1004900029018DE192E090934101809340010895FC
:1004A00010923F0184E192E09093410180934001DA
:1004B00008951092420189E592E09093440180935F
:1004C0004301089581E08093420180912B010E94B5
:1004D000770980912B0180932C0189E592E090931C
:1004E000440180934301089590912C01891741F0B4
:1004F00080932B0182E692E0909344018093430124
:100500000895CF93DF9300D000D000D0CDB7DEB7F1
:100510001092420180E4898381E08A83BE016F5F8B
:100520007F4F80E390E00E94F90885E08B831C8276
:100530001D8283E08E83CE0103960E9440090E94B3
:10054000700989E592E090934401809343012696D7
:100550000FB6F894DEBF0FBECDBFDF91CF910895E7
:1005600041E060E480E390E00E942809089540E0C3
:1005700060E480E390E00E9428090895CF92DF9222
:10058000EF92FF920F931F93CF93DF93CDB7DEB718
:100590006F970FB6F894DEBF0FBECDBF8FE1E3E8D3
:1005A000F0E09E012F5F3F4F7901D90101900D923C
:1005B0008A95E1F70E94880587016E013BE0C30E32
:1005C000D11CF80181918F010E94600583ED90E3B9
:1005D0000197F1F700C000000C151D0591F70E946E
:1005E00073058E01055F1F4F9EE1E90EF11CF801B6
:1005F00081918F010E94600583ED90E30197F1F7EF
:1006000000C000000E151F0591F70E9478050E949A
:100610005B056F960FB6F894DEBF0FBECDBFDF91BE
:10062000CF911F910F91FF90EF90DF90CF900895A1
:10063000BF92CF92DF92EF92FF920F931F93CF93CF
:10064000DF9382EA90E00E946605C0E6D0E0C12C0C
:10065000BC2CFE0101900020E9F73197E056F040F4
:10066000EE2E61E08C2D0E946C0501E0DD24D39418
:1006700001C00F5FFF24FA94F00E85E690E00E941F
:10068000A805182F8823C9F382EB90E00E94660525
:10069000EF2DF0E0E05AFF4F9081191318C00E15AE
:1006A00040F3DD2069F00E945B0584EB90E00E943E
:1006B000660583ED90E30197F1F700C000000BC0E1
:1006C0000E945B058DEB90E00E946605C2CF0E157F
:1006D000B8F7DB2CCECFDF91CF911F910F91FF9018
:1006E000EF90DF90CF90BF9008951092470185E77B
:1006F00093E09093460180934501089581E08093B3
:10070000470180912D010E94DD0785E793E09093DA
:10071000460180934501089580932D018EE793E073
:1007200090934601809345010895109247010E94DD
:10073000C80780E00E94DD0785E793E090934601BB
:1007400080934501089510924A0180912F018111F3
:1007500003C083EA93E002C083EB93E090934901E6
:1007600080934801089581E080934A0190912F0180
:1007700080912E01890F8A3034F089E080932E0118
:100780000E940B0409C088231CF080932E0104C032
:1007900010922E010E940B0480912E010E948C0366
:1007A00010922F0183EA93E09093490180934801CE
:1007B000089580932F01089510924A0180E00E94CD
:1007C0008C0383EA93E09093490180934801089554
:1007D00010924B0188EE93E090934D0180934C0171
:1007E000089581E080934B0160E189E390E00E94ED
:1007F000800583ED90E30197F1F700C0000060E110
:1008000089E390E00E94840588EE93E090934D0187
:1008100080934C01089581EF93E090934D01809374
:100820004C010895CF93DF9300D0CDB7DEB710927F
:100830004B0180E1898381E08A83BE016F5F7F4F36
:1008400089E390E00E947D0560E189E390E00E94E9
:10085000840588EE93E090934D0180934C010F90B6
:100860000F90DF91CF910895109250018DE394E0A5
:1008700090934F0180934E01089581E08093500141
:100880008091300181110E94D9031092300184E3DC
:1008900094E090934F0180934E010895CF93DF939E
:1008A00000D0CDB7DEB710925001198283E08A8361
:1008B000CE0101960E945C0881E08983CE010196F9
:1008C0000E945C0884E394E090934F0180934E0172
:1008D0000F900F90DF91CF9108958091300181505A
:1008E000809330010895809130018F5F80933001B3
:1008F00008951092510189E794E0909353018093F9
:100900005201089582E08093510140E060E084E567
:1009100091E00E9426076EEC70E084E591E00E9471
:100920003B0780917600863429F0833589F0823444
:10093000A9F407C065ED70E084E591E00E943B07F3
:100940000DC060EE70E084E591E00E943B0706C0B8
:100950006BEE70E084E591E00E943B0780917600A9
:100960008093770089E794E090935301809352013C
:10097000089581E080935101809132018C3374F0AD
:1009800084E591E00E94210766EF70E084E591E044
:100990000E943B0781E0809375002DC08091750017
:1009A000813039F584E591E00E9421076EEC70E01A
:1009B00084E591E00E943B0780917600863429F01F
:1009C000833589F08234A9F407C065ED70E084E5D1
:1009D00091E00E943B070DC060EE70E084E591E07D
:1009E0000E943B0706C06BEE70E084E591E00E9438
:1009F0003B071092750041E060E084E591E00E94C1
:100A0000260766E071E084E591E00E943B07409193
:100A10003201552747FD5095652F752F84E591E0EC
:100A20000E94510763E171E084E591E00E943B0779
:100A3000809132018093310189E794E090935301D2
:100A400080935201089590913101891769F0809344
:100A50003201613019F40E94B904089589EB94E0E1
:100A600090935301809352010895909177008917D4
:100A700041F08093760082E894E090935301809354
:100A8000520108951092510183E390E09093550133
:100A90008093540184E08093560188E0809357014D
:100AA00084E591E00E94DA0689E794E0909353018F
:100AB00080935201089584E591E00E9421070895F2
:100AC000682F84E591E00E9437070895BC0184E512
:100AD00091E00E943B070895462F682F84E591E03E
:100AE0000E942607089584E591E00E9485070895F5
:100AF00084E591E00E948E0708950E94F908089508
:100B000041E00E942809089540E00E9428090895C4
:100B1000CF93DF9300D0CDB7DEB781E08A838FE03B
:100B20008983BE016F5F7F4F86E390E00E94F908E2
:100B300082E08A8380EF8983BE016F5F7F4F86E307
:100B400090E00E94F9080F900F90DF91CF910895E7
:100B50001F93CF93DF93EC0110E0113001F130F0DF
:100B60001230B1F1133009F44CC063C040E061E0D1
:100B700086E390E00E94280941E062E086E390E08D
:100B80000E94280941E064E086E390E00E94280981
:100B900041E068E086E390E00E9428094AC041E015
:100BA00061E086E390E00E94280940E062E086E38D
:100BB00090E00E94280941E064E086E390E00E9412
:100BC000280941E068E086E390E00E94280931C0EE
:100BD00041E061E086E390E00E94280941E062E0A4
:100BE00086E390E00E94280940E064E086E390E01C
:100BF0000E94280941E068E086E390E00E9428090D
:100C000018C041E061E086E390E00E94280941E0DD
:100C100062E086E390E00E94280941E064E086E318
:100C200090E00E94280940E068E086E390E00E949E
:100C3000280960E186E390E00E94380981110BC029
:100C400060E186E390E00E9438098823C9F3C10F70
:100C5000D11D88813BC060E286E390E00E943809A4
:100C600081110BC060E286E390E00E94380988237E
:100C7000C9F3C10FD11D8C8129C060E486E390E0E7
:100C80000E94380981110BC060E486E390E00E9465
:100C900038098823C9F3C10FD11D888517C060E8C2
:100CA00086E390E00E94380981110BC060E886E37A
:100CB00090E00E9438098823C9F3C10FD11D8C85AB
:100CC00005C01F5F143009F048CF80E0DF91CF915D
:100CD0001F910895CF93DF93EC0141E06B818881F0
:100CE00099810E94280985E08A95F1F7000040E08B
:100CF0006B81888199810E942809DF91CF910895A5
:100D00001F93CF93DF93EC01162F6A81888199811D
:100D10000E94280914FB442740F960E183E390E036
:100D20000E94280915FB442740F960E283E390E024
:100D30000E94280916FB442740F960E483E390E011
:100D40000E942809412F441F4427441F60E883E381
:100D500090E00E942809CE010E946A06412F41704E
:100D600060E183E390E00E94280911FB442740F9E9
:100D700060E283E390E00E94280912FB442740F9D7
:100D800060E483E390E00E94280913FB442740F9C4
:100D900060E883E390E00E942809CE010E946A0681
:100DA0008FE99FE00197F1F700C00000DF91CF913C
:100DB0001F9108950F931F93CF93DF9300D0CDB76A
:100DC000DEB78C0181E08A83F80192818381892BCF
:100DD0008983BE016F5F7F4F808191810E94F908F6
:100DE00080EF8983BE016F5F7F4F83E390E00E94B5
:100DF000F90840E062E0C8010E94800640E068E235
:100E0000C8010E94800640E060917A00C8010E94FB
:100E1000800640E060917900C8010E94800640E0B1
:100E200060917800C8010E94800640E061E0C8013E
:100E30000E9480060F900F90DF91CF911F910F912C
:100E4000089540E061E00E9480060895411106C0C7
:100E5000603160F460580E9480060895413031F49A
:100E6000603120F4605440E00E948006089541E023
:100E70000E94800608950F931F93CF93DF938C01F8
:100E8000EB016881662341F0219641E0C8010E9490
:100E9000800669916111F9CFDF91CF911F910F9178
:100EA0000895EF92FF920F931F93CF93DF93CDB7E7
:100EB000DEB760970FB6F894DEBF0FBECDBF7C01E2
:100EC0007F936F935F934F932EE131E03F932F9386
:100ED0008E010F5F1F4F1F930F930E94C70CB80125
:100EE000C7010E943B070FB6F894DEBF0FBECDBF0F
:100EF00060960FB6F894DEBF0FBECDBFDF91CF91E5
:100F00001F910F91FF90EF90089560917A006360B8
:100F100060937A0040E00E948006089560917A0014
:100F20006C7F626060937A0040E00E9480060895C2
:100F3000FC012081209358018181809359010895FB
:100F4000813021F40E942A08FC0105C080915901DA
:100F50000E942F08FC012091580130E0A8EEB3E078
:100F60000E94AD0C9B01AC01DF010E94BC0C052E60
:100F70005AE096958795779567955A95D1F7502DB4
:100F80002AE030E040E050E00E948B0C822F089570
:100F9000CF93DF9300D0CDB7DEB78FE0898381E0B8
:100FA0008A83BE016F5F7F4F89E390E00E94F9085A
:100FB0000F900F90DF91CF910895CF93C82F482FB6
:100FC000417061E089E390E00E942809C1FB442759
:100FD00040F962E089E390E00E942809C2FB4427BF
:100FE00040F964E089E390E00E942809C3FB4427AC
:100FF00040F968E089E390E00E942809CF910895C4
:10100000FC0127B1808130E4839FC0011124922F1D
:101010009F73892B87B986B1887F9181892B86B987
:1010200086B19281990F990F990F877F892B86B985
:101030008281813009F478940895379A089597B1A0
:10104000907E892B87B90895369A0895349BFECFF8
:10105000349A089584B125B190E0922B08950E94AE
:101060001F080E9424080E9426080E942A0808954A
:101070001F920F920FB60F9211242F933F934F930D
:101080005F936F937F938F939F93AF93BF93EF93F0
:10109000FF930E94AC00FF91EF91BF91AF919F91A0
:1010A0008F917F916F915F914F913F912F910F9011
:1010B0000FBE0F901F901895FC012081213079F010
:1010C00018F02230C9F026C025B72C7FFC01918191
:1010D000822F892B85BF8BB780648BBF1BC025B740
:1010E000FC019181990F990F822F837F892B85BFF6
:1010F0008BB780688BBF0EC024B7FC018181F0E400
:101100008F9FC0011124922F9F7B892B84BF8BB7A7
:1011100080628BBF789408951F920F920FB60F9242
:1011200011242F933F934F935F936F937F938F93EC
:101130009F93AF93BF93EF93FF930E946D04FF9132
:10114000EF91BF91AF919F918F917F916F915F913F
:101150004F913F912F910F900FBE0F901F901895B8
:101160001F920F920FB60F9211242F933F934F931C
:101170005F936F937F938F939F93AF93BF93EF93FF
:10118000FF930E947304FF91EF91BF91AF919F91E4
:101190008F917F916F915F914F913F912F910F9020
:1011A0000FBE0F901F901895FFCF1F920F920FB692
:1011B0000F9211242F933F934F935F936F937F93DD
:1011C0008F939F93AF93BF93EF93FF930E94D408A5
:1011D000FF91EF91BF91AF919F918F917F916F910F
:1011E0005F914F913F912F910F900FBE0F901F90E5
:1011F0001895FB012181213069F018F0223091F01F
:101200000895FC013181FB01208120952323FC01FD
:1012100021830895FC013181FB012081232BFC01F6
:1012200021830895FC013181FB0120812095232336
:10123000FC0121833281FB012081232BFC012283CD
:101240000895FC01228160956223462B4283089514
:10125000442319F0413039F00895FC012281609552
:10126000622362830895FC012281622B62830895C8
:10127000FC018081682311F480E0089581E00895E5
:10128000FC01808180935B0193B78181282F2170BD
:1012900030E00024369527950794369527950794D6
:1012A000322F202D8695880F880F880F282B977B4B
:1012B000292B23BF928190935A0123B730E1939F4A
:1012C000C0011124922F9F7C892B83BF89B78C7F0B
:1012D0009381892B89BF8381882309F078940895AD
:1012E00083B7887F90915B01892B83BF08958CBF62
:1012F00008951F920F920FB60F9211242F933F93D0
:101300004F935F936F937F938F939F93AF93BF930D
:10131000EF93FF930E94B002FF91EF91BF91AF91C5
:101320009F918F917F916F915F914F913F912F91FD
:101330000F900FBE0F901F9018951F920F920FB62F
:101340000F9211242F933F934F935F936F937F934B
:101350008F939F93AF93BF93EF93FF930E94B70236
:10136000FF91EF91BF91AF919F918F917F916F917D
:101370005F914F913F912F910F900FBE0F901F9053
:101380001895FF920F931F93CF93DF9300D0CDB7A3
:10139000DEB78C0182E08983FF24F394FA82BE01D8
:1013A0006F5F7F4F80E390E00E94F908F9821A8214
:1013B000BE016F5F7F4F80E390E00E94F908F80163
:1013C000808189B980B58F7780BD80B59181807F1C
:1013D000892B80BD80B5806880BD80B59281990FD2
:1013E000897F892B80BD8AB192819C7F8B7F892BDD
:1013F0008AB980B5806880BD20B584818695F0E487
:101400008F9FC0011124922F9F7B892B80BDF801F3
:101410008481882319F0813019F003C0599801C0E4
:10142000599A80B5806880BD20B5F8018581F0E1CA
:101430008F9FC0011124922F9F7C892B80BD80B586
:10144000F8019681990F990F990F877F892B80BD9D
:101450009781992351F02AB1F0E29F9FC001112496
:10146000922F9F71892B8AB97894539A549A0F902E
:101470000F90DF91CF911F910F91FF9008955D9B89
:10148000FECF8CB908955F9BFECF2CB1FC01208369
:1014900008951F920F920FB60F9211242F933F932E
:1014A0004F935F936F937F938F939F93AF93BF936C
:1014B000EF93FF930E945201FF91EF91BF91AF9183
:1014C0009F918F917F916F915F914F913F912F915C
:1014D0000F900FBE0F901F901895FFCF1F920F9285
:1014E0000FB60F9211242F933F934F935F936F93F7
:1014F0007F938F939F93AF93BF93EF93FF930E943C
:101500006D0AFF91EF91BF91AF919F918F917F9164
:101510006F915F914F913F912F910F900FBE0F9060
:101520001F901895FFCF1F920F920FB60F921124A4
:101530002F933F934F935F936F937F938F939F93DB
:10154000AF93BF93EF93FF930E94920AFF91EF91A5
:10155000BF91AF919F918F917F916F915F914F91CB
:101560003F912F910F900FBE0F901F9018950E94E2
:1015700042050E94BE020E9418030E944E040E946F
:10158000DC030E9495030E9412040E9452000E94F4
:10159000BC010E94F7010E9450020E9481020E9439
:1015A0001F01E0914E01F0914F010995E091480132
:1015B000F09149010995E0914501F09146010995A5
:1015C000E0914C01F0914D010995E0913A01F091C3
:1015D0003B010995E0913D01F0913E010995E091B3
:1015E0005201F09153010995E0914001F0914101C0
:1015F0000995E0914301F09144010995E09136018C
:10160000F09137010995E0915201F091530109954C
:10161000C8CF5058BB27AA270ED0E0C0D1D030F099
:10162000D6D020F031F49F3F11F41EF4C6C00EF462
:10163000E095E7FBBCC0E92FE2D080F3BA17620760
:1016400073078407950718F071F49EF5FAC00EF43D
:10165000E0950B2EBA2FA02D0B01B90190010C01C2
:10166000CA01A0011124FF27591B99F0593F50F4DA
:10167000503E68F11A16F040A22F232F342F442732
:10168000585FF3CF469537952795A795F04053952A
:10169000C9F77EF41F16BA0B620B730B840BBAF0FA
:1016A0009150A1F0FF0FBB1F661F771F881FC2F765
:1016B0000EC0BA0F621F731F841F48F48795779579
:1016C0006795B795F7959E3F08F0B3CF9395880F30
:1016D00008F09927EE0F97958795089598D088F090
:1016E0009F5790F0B92F9927B751A0F0D1F0660F0E
:1016F000771F881F991F1AF0BA95C9F712C0B13029
:1017000081F09FD0B1E008959CC0672F782F882783
:10171000B85F39F0B93FCCF3869577956795B39567
:10172000D9F73EF490958095709561957F4F8F4FD6
:101730009F4F0895E89409C097FB3EF490958095DB
:10174000709561957F4F8F4F9F4F9923A9F0F92F87
:1017500096E9BB279395F695879577956795B79505
:10176000F111F8CFFAF4BB0F11F460FF1BC06F5FEB
:101770007F4F8F4F9F4F16C0882311F096E911C0FD
:10178000772321F09EE8872F762F05C0662371F01E
:1017900096E8862F70E060E02AF09A95660F771F32
:1017A000881FDAF7880F9695879597F9089597F926
:1017B0009F6780E870E060E008959FEF80EC0895F7
:1017C00000240A9416161706180609060895002420
:1017D0000A9412161306140605060895092E03949A
:1017E000000C11F4882352F0BB0F40F4BF2B11F40E
:1017F00060FF04C06F5F7F4F8F4F9F4F089557FD6D
:101800009058440F551F59F05F3F71F04795880F6E
:1018100097FB991F61F09F3F79F087950895121605
:1018200013061406551FF2CF4695F1DF08C01616B1
:1018300017061806991FF1CF869571056105089462
:101840000895E894BB2766277727CB0197F9089579
:101850000BD0C4CFB5DF28F0BADF18F0952309F01C
:10186000A6CFABCF1124EECFCADFA0F3959FD1F363
:10187000950F50E0551F629FF001729FBB27F00D3E
:10188000B11D639FAA27F00DB11DAA1F649F662793
:10189000B00DA11D661F829F2227B00DA11D621FE2
:1018A000739FB00DA11D621F839FA00D611D221F9C
:1018B000749F3327A00D611D231F849F600D211D80
:1018C000822F762F6A2F11249F5750408AF0E1F023
:1018D00088234AF0EE0FFF1FBB1F661F771F881F6C
:1018E00091505040A9F79E3F510570F060CFAACFAC
:1018F0005F3FECF3983EDCF3869577956795B79557
:10190000F795E7959F5FC1F7FE2B880F911D969580
:10191000879597F90895A1E21A2EAA1BBB1BFD011A
:101920000DC0AA1FBB1FEE1FFF1FA217B307E407BE
:10193000F50720F0A21BB30BE40BF50B661F771F16
:10194000881F991F1A9469F76095709580959095F6
:101950009B01AC01BD01CF010895A29FB001B39FCF
:10196000C001A39F700D811D1124911DB29F700DA8
:10197000811D1124911D08950E94AD0CA59F900D0D
:10198000B49F900DA49F800D911D11240895AEE089
:10199000B0E0EDECFCE00C946F0F0D891E8986E041
:1019A0008C831A8309838FEF9FE79E838D83AE011B
:1019B000475E5F4F6F89788DCE0101960E94E90CDA
:1019C000EF81F885E00FF11F10822E96E4E00C9471
:1019D0008B0FACE0B0E0EFEEFCE00C94610F7C010B
:1019E0006B018A01FC0117821682838181FFBDC1D0
:1019F000CE0101964C01F7019381F60193FD85918B
:101A000093FF81916F01882309F4ABC1853239F4CA
:101A100093FD859193FF81916F01853229F4B70180
:101A200090E00E94D10EE7CF512C312C20E02032E3
:101A3000A0F48B3269F030F4803259F0833269F4CB
:101A400020612CC08D3239F0803339F4216026C0FA
:101A50002260246023C0286021C027FD27C030ED0C
:101A6000380F3A3078F426FF06C0FAE05F9E300D5A
:101A70001124532E13C08AE0389E300D1124332ECA
:101A800020620CC08E3221F426FD6BC1206406C09A
:101A90008C3611F4206802C0883641F4F60193FDBB
:101AA000859193FF81916F018111C1CF982F9F7D07
:101AB0009554933028F40C5F1F4FFFE3F9830DC05A
:101AC000833631F0833771F0833509F05BC022C073
:101AD000F801808189830E5F1F4F44244394512C69
:101AE000540115C03801F2E06F0E711CF801A0809E
:101AF000B18026FF03C0652D70E002C06FEF7FEF5D
:101B0000C5012C870E94C60E2C0183012C852F77DE
:101B1000222E17C03801F2E06F0E711CF801A08070
:101B2000B18026FF03C0652D70E002C06FEF7FEF2C
:101B3000C5012C870E94BB0E2C012C852068222E0B
:101B4000830123FC1BC0832D90E048165906B0F496
:101B5000B70180E290E00E94D10E3A94F4CFF501F3
:101B600027FC859127FE81915F01B70190E00E94DB
:101B7000D10E31103A94F1E04F1A5108411451043A
:101B800071F7E5C0843611F0893639F5F80127FF81
:101B900007C060817181828193810C5F1F4F08C0F3
:101BA00060817181882777FD8095982F0E5F1F4F88
:101BB0002F76B22E97FF09C090958095709561950C
:101BC0007F4F8F4F9F4F2068B22E2AE030E0A40154
:101BD0000E94030FA82EA81844C0853729F42F7E31
:101BE000B22E2AE030E025C0F22FF97FBF2E8F36CB
:101BF000C1F018F4883579F0B4C0803719F088370F
:101C000021F0AFC02F2F2061B22EB4FE0DC08B2D5E
:101C10008460B82E09C024FF0AC09F2F9660B92E99
:101C200006C028E030E005C020E130E002C020E13D
:101C300032E0F801B7FE07C0608171818281938133
:101C40000C5F1F4F06C06081718180E090E00E5FE5
:101C50001F4FA4010E94030FA82EA818FB2DFF7789
:101C6000BF2EB6FE0BC02B2D2E7FA51450F4B4FE54
:101C70000AC0B2FC08C02B2D2E7E05C07A2C2B2D5D
:101C800003C07A2C01C0752C24FF0DC0FE01EA0DA3
:101C9000F11D8081803311F4297E09C022FF06C026
:101CA0007394739404C0822F867809F0739423FD93
:101CB00013C020FF06C05A2C731418F4530C571885
:101CC000732C731468F4B70180E290E02C870E94B3
:101CD000D10E73942C85F5CF731410F4371801C00E
:101CE000312C24FF12C0B70180E390E02C870E94C2
:101CF000D10E2C8522FF17C021FF03C088E590E09C
:101D000002C088E790E0B7010CC0822F867859F0B6
:101D100021FD02C080E201C08BE227FD8DE2B70108
:101D200090E00E94D10EA51438F4B70180E390E052
:101D30000E94D10E5A94F7CFAA94F401EA0DF11D36
:101D40008081B70190E00E94D10EA110F5CF332021
:101D500009F451CEB70180E290E00E94D10E3A948E
:101D6000F6CFF7018681978102C08FEF9FEF2C9607
:101D7000E2E10C947D0FFC01059061507040011070
:101D8000D8F7809590958E0F9F1F0895FC016150A4
:101D9000704001900110D8F7809590958E0F9F1F8D
:101DA00008950F931F93CF93DF93182F092FEB0103
:101DB0008B8181FD03C08FEF9FEF20C082FF10C099
:101DC0004E815F812C813D81421753077CF4E8816D
:101DD000F9819F012F5F3F4F39832883108306C00D
:101DE000E885F985812F0995892B29F72E813F8177
:101DF0002F5F3F4F3F832E83812F902FDF91CF9115
:101E00001F910F910895FA01AA27283051F120312E
:101E100081F1E8946F936E7F6E5F7F4F8F4F9F4F7E
:101E2000AF4FB1E03ED0B4E03CD0670F781F891FC0
:101E30009A1FA11D680F791F8A1F911DA11D6A0F8E
:101E4000711D811D911DA11D20D009F468943F9141
:101E50002AE0269F11243019305D3193DEF6CF0140
:101E60000895462F4770405D4193B3E00FD0C9F706
:101E7000F6CF462F4F70405D4A3318F0495D31FD73
:101E80004052419302D0A9F7EACFB4E0A6959795C6
:101E9000879577956795BA95C9F70097610571059C
:101EA00008959B01AC010A2E0694579547953795E6
:101EB0002795BA95C9F7620F731F841F951FA01D40
:101EC00008952F923F924F925F926F927F928F92DE
:101ED0009F92AF92BF92CF92DF92EF92FF920F93B9
:101EE0001F93CF93DF93CDB7DEB7CA1BDB0B0FB6C3
:101EF000F894DEBF0FBECDBF09942A883988488880
:101F00005F846E847D848C849B84AA84B984C88415
:101F1000DF80EE80FD800C811B81AA81B981CE0F0C
:101F2000D11D0FB6F894DEBF0FBECDBFED010895F1
:041F3000F894FFCF53
:101F34003132333400373839FE3435367831323380
:101F44002D3F303D2B015353140E060C00030001AA
:101F540000000457656C636F6D6520746F20536DCA
:101F640061727420486F6D652050726F6A65637486
:101F74002E00456E74657220596F7572205061731E
:101F840073002A00436F7272656374210057726F85
:101F94006E672154727920416761696E2E004D6F1E
:101FA400746F723A00466F72776172642020200069
:101FB4004261636B7761726420200053746F7070A8
:101FC40065642020200053797374656D2053746F09
:101FD400707065642E0054656D70657261747572FD
:101FE400653A00DF43002D002573256C752E256CA2
:021FF400750076
:00000001FF
